{
  "address": "0x2279B7A0a67DB372996a5FaB50D91eAA73d2eBe6",
  "abi": [
    {
      "inputs": [
        {
          "internalType": "address[]",
          "name": "_managers",
          "type": "address[]"
        }
      ],
      "stateMutability": "nonpayable",
      "type": "constructor"
    },
    {
      "anonymous": false,
      "inputs": [
        {
          "indexed": false,
          "internalType": "address",
          "name": "manager",
          "type": "address"
        },
        {
          "indexed": false,
          "internalType": "bytes32",
          "name": "hashedDescription",
          "type": "bytes32"
        }
      ],
      "name": "LogObservedProposal",
      "type": "event"
    },
    {
      "anonymous": false,
      "inputs": [
        {
          "indexed": true,
          "internalType": "address",
          "name": "previousOwner",
          "type": "address"
        },
        {
          "indexed": true,
          "internalType": "address",
          "name": "newOwner",
          "type": "address"
        }
      ],
      "name": "OwnershipTransferred",
      "type": "event"
    },
    {
      "anonymous": false,
      "inputs": [
        {
          "indexed": true,
          "internalType": "bytes32",
          "name": "role",
          "type": "bytes32"
        },
        {
          "indexed": true,
          "internalType": "bytes32",
          "name": "previousAdminRole",
          "type": "bytes32"
        },
        {
          "indexed": true,
          "internalType": "bytes32",
          "name": "newAdminRole",
          "type": "bytes32"
        }
      ],
      "name": "RoleAdminChanged",
      "type": "event"
    },
    {
      "anonymous": false,
      "inputs": [
        {
          "indexed": true,
          "internalType": "bytes32",
          "name": "role",
          "type": "bytes32"
        },
        {
          "indexed": true,
          "internalType": "address",
          "name": "account",
          "type": "address"
        },
        {
          "indexed": true,
          "internalType": "address",
          "name": "sender",
          "type": "address"
        }
      ],
      "name": "RoleGranted",
      "type": "event"
    },
    {
      "anonymous": false,
      "inputs": [
        {
          "indexed": true,
          "internalType": "bytes32",
          "name": "role",
          "type": "bytes32"
        },
        {
          "indexed": true,
          "internalType": "address",
          "name": "account",
          "type": "address"
        },
        {
          "indexed": true,
          "internalType": "address",
          "name": "sender",
          "type": "address"
        }
      ],
      "name": "RoleRevoked",
      "type": "event"
    },
    {
      "inputs": [],
      "name": "DEFAULT_ADMIN_ROLE",
      "outputs": [
        {
          "internalType": "bytes32",
          "name": "",
          "type": "bytes32"
        }
      ],
      "stateMutability": "view",
      "type": "function"
    },
    {
      "inputs": [],
      "name": "MANAGER_ROLE",
      "outputs": [
        {
          "internalType": "bytes32",
          "name": "",
          "type": "bytes32"
        }
      ],
      "stateMutability": "view",
      "type": "function"
    },
    {
      "inputs": [
        {
          "internalType": "address",
          "name": "_manager",
          "type": "address"
        }
      ],
      "name": "addManager",
      "outputs": [],
      "stateMutability": "nonpayable",
      "type": "function"
    },
    {
      "inputs": [
        {
          "internalType": "bytes32",
          "name": "_hashedDescription",
          "type": "bytes32"
        }
      ],
      "name": "addPassedProposal",
      "outputs": [],
      "stateMutability": "nonpayable",
      "type": "function"
    },
    {
      "inputs": [
        {
          "internalType": "bytes32",
          "name": "_hashedDescription",
          "type": "bytes32"
        }
      ],
      "name": "getPassedProposal",
      "outputs": [
        {
          "internalType": "bool",
          "name": "",
          "type": "bool"
        }
      ],
      "stateMutability": "view",
      "type": "function"
    },
    {
      "inputs": [
        {
          "internalType": "bytes32",
          "name": "role",
          "type": "bytes32"
        }
      ],
      "name": "getRoleAdmin",
      "outputs": [
        {
          "internalType": "bytes32",
          "name": "",
          "type": "bytes32"
        }
      ],
      "stateMutability": "view",
      "type": "function"
    },
    {
      "inputs": [
        {
          "internalType": "bytes32",
          "name": "role",
          "type": "bytes32"
        },
        {
          "internalType": "address",
          "name": "account",
          "type": "address"
        }
      ],
      "name": "grantRole",
      "outputs": [],
      "stateMutability": "nonpayable",
      "type": "function"
    },
    {
      "inputs": [
        {
          "internalType": "bytes32",
          "name": "role",
          "type": "bytes32"
        },
        {
          "internalType": "address",
          "name": "account",
          "type": "address"
        }
      ],
      "name": "hasRole",
      "outputs": [
        {
          "internalType": "bool",
          "name": "",
          "type": "bool"
        }
      ],
      "stateMutability": "view",
      "type": "function"
    },
    {
      "inputs": [
        {
          "internalType": "bytes32",
          "name": "_hashedDescription",
          "type": "bytes32"
        }
      ],
      "name": "markProposalAsObserved",
      "outputs": [],
      "stateMutability": "nonpayable",
      "type": "function"
    },
    {
      "inputs": [
        {
          "internalType": "bytes32",
          "name": "",
          "type": "bytes32"
        }
      ],
      "name": "observables",
      "outputs": [
        {
          "internalType": "bool",
          "name": "",
          "type": "bool"
        }
      ],
      "stateMutability": "view",
      "type": "function"
    },
    {
      "inputs": [],
      "name": "owner",
      "outputs": [
        {
          "internalType": "address",
          "name": "",
          "type": "address"
        }
      ],
      "stateMutability": "view",
      "type": "function"
    },
    {
      "inputs": [
        {
          "internalType": "address",
          "name": "_manager",
          "type": "address"
        }
      ],
      "name": "removeManager",
      "outputs": [],
      "stateMutability": "nonpayable",
      "type": "function"
    },
    {
      "inputs": [],
      "name": "renounceOwnership",
      "outputs": [],
      "stateMutability": "nonpayable",
      "type": "function"
    },
    {
      "inputs": [
        {
          "internalType": "bytes32",
          "name": "role",
          "type": "bytes32"
        },
        {
          "internalType": "address",
          "name": "account",
          "type": "address"
        }
      ],
      "name": "renounceRole",
      "outputs": [],
      "stateMutability": "nonpayable",
      "type": "function"
    },
    {
      "inputs": [
        {
          "internalType": "bytes32",
          "name": "role",
          "type": "bytes32"
        },
        {
          "internalType": "address",
          "name": "account",
          "type": "address"
        }
      ],
      "name": "revokeRole",
      "outputs": [],
      "stateMutability": "nonpayable",
      "type": "function"
    },
    {
      "inputs": [
        {
          "internalType": "bytes4",
          "name": "interfaceId",
          "type": "bytes4"
        }
      ],
      "name": "supportsInterface",
      "outputs": [
        {
          "internalType": "bool",
          "name": "",
          "type": "bool"
        }
      ],
      "stateMutability": "view",
      "type": "function"
    },
    {
      "inputs": [
        {
          "internalType": "address",
          "name": "newOwner",
          "type": "address"
        }
      ],
      "name": "transferOwnership",
      "outputs": [],
      "stateMutability": "nonpayable",
      "type": "function"
    }
  ],
  "transactionHash": "0x958f55aea65007ebc5c9fe53da9e08abe554886f4490f296063d2da0467d92c5",
  "args": [
    [
      "0x70997970C51812dc3A010C7d01b50e0d17dc79C8",
      "0x3C44CdDdB6a900fa2b585dd299e03d12FA4293BC"
    ]
  ],
  "numDeployments": 1,
  "solcInputHash": "daedb57e0e2aa6a3e0b526bd6487b7fc",
  "bytecode": "0x60806040523480156200001157600080fd5b5060405162000ee938038062000ee98339810160408190526200003491620001d0565b6200003f33620000ce565b6200004c6000336200011e565b60005b8151811015620000c657620000b37f241ecf16d79d0f8dbfb92cbc07fe17840425976cf0667f022fe9877caa831b088383815181106200009f57634e487b7160e01b600052603260045260246000fd5b6020026020010151620001a760201b60201c565b620000be81620002a4565b90506200004f565b5050620002e2565b600080546001600160a01b038381166001600160a01b0319831681178455604051919092169283917f8be0079c531659141344cd1fd0a4f28419497f9722a3daafe3b4186f6b6457e09190a35050565b60008281526001602090815260408083206001600160a01b038516845290915290205460ff16620001a35760008281526001602081815260408084206001600160a01b0386168086529252808420805460ff19169093179092559051339285917f2f8788117e7eff1d82e926ec794901d17c78024a50270940304540a733656f0d9190a45b5050565b620001a382826200011e565b80516001600160a01b0381168114620001cb57600080fd5b919050565b60006020808385031215620001e3578182fd5b82516001600160401b0380821115620001fa578384fd5b818501915085601f8301126200020e578384fd5b815181811115620002235762000223620002cc565b8060051b604051601f19603f830116810181811085821117156200024b576200024b620002cc565b604052828152858101935084860182860187018a10156200026a578788fd5b8795505b8386101562000297576200028281620001b3565b8552600195909501949386019386016200026e565b5098975050505050505050565b6000600019821415620002c557634e487b7160e01b81526011600452602481fd5b5060010190565b634e487b7160e01b600052604160045260246000fd5b610bf780620002f26000396000f3fe608060405234801561001057600080fd5b506004361061010b5760003560e01c806391d14854116100a2578063cae4bb2c11610071578063cae4bb2c1461022c578063d547741f1461023f578063e737e2f714610252578063ec87621c14610275578063f2fde38b1461028a57600080fd5b806391d14854146101eb578063a217fddf146101fe578063ac18de4314610206578063c08ae0da1461021957600080fd5b806336568abe116100de57806336568abe146101925780633a627981146101a5578063715018a6146101c85780638da5cb5b146101d057600080fd5b806301ffc9a714610110578063248a9ca3146101385780632d06177a1461016a5780632f2ff15d1461017f575b600080fd5b61012361011e366004610a08565b61029d565b60405190151581526020015b60405180910390f35b61015c6101463660046109c5565b6000908152600160208190526040909120015490565b60405190815260200161012f565b61017d6101783660046109ab565b6102d4565b005b61017d61018d3660046109dd565b610322565b61017d6101a03660046109dd565b61034d565b6101236101b33660046109c5565b60026020526000908152604090205460ff1681565b61017d6103cb565b6000546040516001600160a01b03909116815260200161012f565b6101236101f93660046109dd565b610401565b61015c600081565b61017d6102143660046109ab565b61042c565b61017d6102273660046109c5565b61046e565b61017d61023a3660046109c5565b610516565b61017d61024d3660046109dd565b610558565b6101236102603660046109c5565b60009081526002602052604090205460ff1690565b61015c600080516020610ba283398151915281565b61017d6102983660046109ab565b61057e565b60006001600160e01b03198216637965db0b60e01b14806102ce57506301ffc9a760e01b6001600160e01b03198316145b92915050565b6000546001600160a01b031633146103075760405162461bcd60e51b81526004016102fe90610ad8565b60405180910390fd5b61031f600080516020610ba283398151915282610616565b50565b6000828152600160208190526040909120015461033e81610681565b6103488383610616565b505050565b6001600160a01b03811633146103bd5760405162461bcd60e51b815260206004820152602f60248201527f416363657373436f6e74726f6c3a2063616e206f6e6c792072656e6f756e636560448201526e103937b632b9903337b91039b2b63360891b60648201526084016102fe565b6103c7828261068b565b5050565b6000546001600160a01b031633146103f55760405162461bcd60e51b81526004016102fe90610ad8565b6103ff60006106f2565b565b60009182526001602090815260408084206001600160a01b0393909316845291905290205460ff1690565b6000546001600160a01b031633146104565760405162461bcd60e51b81526004016102fe90610ad8565b61031f600080516020610ba283398151915282610558565b610486600080516020610ba283398151915233610401565b6104c05760405162461bcd60e51b815260206004820152600b60248201526a1b9bdd08185b1b1bddd95960aa1b60448201526064016102fe565b600081815260026020908152604091829020805460ff1916600117905581513381529081018390527fbfb8686715625f9c6fa8193d20c36e3fb586a1b461fd5d3e0f03c640bdf75ca6910160405180910390a150565b6000546001600160a01b031633146105405760405162461bcd60e51b81526004016102fe90610ad8565b6000908152600260205260409020805460ff19169055565b6000828152600160208190526040909120015461057481610681565b610348838361068b565b6000546001600160a01b031633146105a85760405162461bcd60e51b81526004016102fe90610ad8565b6001600160a01b03811661060d5760405162461bcd60e51b815260206004820152602660248201527f4f776e61626c653a206e6577206f776e657220697320746865207a65726f206160448201526564647265737360d01b60648201526084016102fe565b61031f816106f2565b6106208282610401565b6103c75760008281526001602081815260408084206001600160a01b0386168086529252808420805460ff19169093179092559051339285917f2f8788117e7eff1d82e926ec794901d17c78024a50270940304540a733656f0d9190a45050565b61031f8133610742565b6106958282610401565b156103c75760008281526001602090815260408083206001600160a01b0385168085529252808320805460ff1916905551339285917ff6391f5c32d9c69d2a47ea670b442974b53935d1edc7fd64eb21e047a839171b9190a45050565b600080546001600160a01b038381166001600160a01b0319831681178455604051919092169283917f8be0079c531659141344cd1fd0a4f28419497f9722a3daafe3b4186f6b6457e09190a35050565b61074c8282610401565b6103c757610764816001600160a01b031660146107a6565b61076f8360206107a6565b604051602001610780929190610a30565b60408051601f198184030181529082905262461bcd60e51b82526102fe91600401610aa5565b606060006107b5836002610b25565b6107c0906002610b0d565b67ffffffffffffffff8111156107e657634e487b7160e01b600052604160045260246000fd5b6040519080825280601f01601f191660200182016040528015610810576020820181803683370190505b509050600360fc1b8160008151811061083957634e487b7160e01b600052603260045260246000fd5b60200101906001600160f81b031916908160001a905350600f60fb1b8160018151811061087657634e487b7160e01b600052603260045260246000fd5b60200101906001600160f81b031916908160001a905350600061089a846002610b25565b6108a5906001610b0d565b90505b6001811115610939576f181899199a1a9b1b9c1cb0b131b232b360811b85600f16601081106108e757634e487b7160e01b600052603260045260246000fd5b1a60f81b82828151811061090b57634e487b7160e01b600052603260045260246000fd5b60200101906001600160f81b031916908160001a90535060049490941c9361093281610b74565b90506108a8565b5083156109885760405162461bcd60e51b815260206004820181905260248201527f537472696e67733a20686578206c656e67746820696e73756666696369656e7460448201526064016102fe565b9392505050565b80356001600160a01b03811681146109a657600080fd5b919050565b6000602082840312156109bc578081fd5b6109888261098f565b6000602082840312156109d6578081fd5b5035919050565b600080604083850312156109ef578081fd5b823591506109ff6020840161098f565b90509250929050565b600060208284031215610a19578081fd5b81356001600160e01b031981168114610988578182fd5b7f416363657373436f6e74726f6c3a206163636f756e7420000000000000000000815260008351610a68816017850160208801610b44565b7001034b99036b4b9b9b4b733903937b6329607d1b6017918401918201528351610a99816028840160208801610b44565b01602801949350505050565b6020815260008251806020840152610ac4816040850160208701610b44565b601f01601f19169190910160400192915050565b6020808252818101527f4f776e61626c653a2063616c6c6572206973206e6f7420746865206f776e6572604082015260600190565b60008219821115610b2057610b20610b8b565b500190565b6000816000190483118215151615610b3f57610b3f610b8b565b500290565b60005b83811015610b5f578181015183820152602001610b47565b83811115610b6e576000848401525b50505050565b600081610b8357610b83610b8b565b506000190190565b634e487b7160e01b600052601160045260246000fdfe241ecf16d79d0f8dbfb92cbc07fe17840425976cf0667f022fe9877caa831b08a2646970667358221220fe90b3914522956f558f74acb6007b6e840c30c57d27352f126e4bf7473f9a1764736f6c63430008040033",
  "devdoc": {
    "kind": "dev",
    "methods": {
      "getRoleAdmin(bytes32)": {
        "details": "Returns the admin role that controls `role`. See {grantRole} and {revokeRole}. To change a role's admin, use {_setRoleAdmin}."
      },
      "grantRole(bytes32,address)": {
        "details": "Grants `role` to `account`. If `account` had not been already granted `role`, emits a {RoleGranted} event. Requirements: - the caller must have ``role``'s admin role."
      },
      "hasRole(bytes32,address)": {
        "details": "Returns `true` if `account` has been granted `role`."
      },
      "owner()": {
        "details": "Returns the address of the current owner."
      },
      "renounceOwnership()": {
        "details": "Leaves the contract without owner. It will not be possible to call `onlyOwner` functions anymore. Can only be called by the current owner. NOTE: Renouncing ownership will leave the contract without an owner, thereby removing any functionality that is only available to the owner."
      },
      "renounceRole(bytes32,address)": {
        "details": "Revokes `role` from the calling account. Roles are often managed via {grantRole} and {revokeRole}: this function's purpose is to provide a mechanism for accounts to lose their privileges if they are compromised (such as when a trusted device is misplaced). If the calling account had been revoked `role`, emits a {RoleRevoked} event. Requirements: - the caller must be `account`."
      },
      "revokeRole(bytes32,address)": {
        "details": "Revokes `role` from `account`. If `account` had been granted `role`, emits a {RoleRevoked} event. Requirements: - the caller must have ``role``'s admin role."
      },
      "supportsInterface(bytes4)": {
        "details": "See {IERC165-supportsInterface}."
      },
      "transferOwnership(address)": {
        "details": "Transfers ownership of the contract to a new account (`newOwner`). Can only be called by the current owner."
      }
    },
    "version": 1
  },
  "userdoc": {
    "kind": "user",
    "methods": {},
    "version": 1
  },
  "storageLayout": {
    "storage": [
      {
        "astId": 400,
        "contract": "contracts/SlcDaoTopics.sol:SlcDaoTopics",
        "label": "_owner",
        "offset": 0,
        "slot": "0",
        "type": "t_address"
      },
      {
        "astId": 24,
        "contract": "contracts/SlcDaoTopics.sol:SlcDaoTopics",
        "label": "_roles",
        "offset": 0,
        "slot": "1",
        "type": "t_mapping(t_bytes32,t_struct(RoleData)19_storage)"
      },
      {
        "astId": 5364,
        "contract": "contracts/SlcDaoTopics.sol:SlcDaoTopics",
        "label": "observables",
        "offset": 0,
        "slot": "2",
        "type": "t_mapping(t_bytes32,t_bool)"
      }
    ],
    "types": {
      "t_address": {
        "encoding": "inplace",
        "label": "address",
        "numberOfBytes": "20"
      },
      "t_bool": {
        "encoding": "inplace",
        "label": "bool",
        "numberOfBytes": "1"
      },
      "t_bytes32": {
        "encoding": "inplace",
        "label": "bytes32",
        "numberOfBytes": "32"
      },
      "t_mapping(t_address,t_bool)": {
        "encoding": "mapping",
        "key": "t_address",
        "label": "mapping(address => bool)",
        "numberOfBytes": "32",
        "value": "t_bool"
      },
      "t_mapping(t_bytes32,t_bool)": {
        "encoding": "mapping",
        "key": "t_bytes32",
        "label": "mapping(bytes32 => bool)",
        "numberOfBytes": "32",
        "value": "t_bool"
      },
      "t_mapping(t_bytes32,t_struct(RoleData)19_storage)": {
        "encoding": "mapping",
        "key": "t_bytes32",
        "label": "mapping(bytes32 => struct AccessControl.RoleData)",
        "numberOfBytes": "32",
        "value": "t_struct(RoleData)19_storage"
      },
      "t_struct(RoleData)19_storage": {
        "encoding": "inplace",
        "label": "struct AccessControl.RoleData",
        "members": [
          {
            "astId": 16,
            "contract": "contracts/SlcDaoTopics.sol:SlcDaoTopics",
            "label": "members",
            "offset": 0,
            "slot": "0",
            "type": "t_mapping(t_address,t_bool)"
          },
          {
            "astId": 18,
            "contract": "contracts/SlcDaoTopics.sol:SlcDaoTopics",
            "label": "adminRole",
            "offset": 0,
            "slot": "1",
            "type": "t_bytes32"
          }
        ],
        "numberOfBytes": "64"
      }
    }
  }
}