{
  "address": "0x5FbDB2315678afecb367f032d93F642f64180aa3",
  "abi": [
    {
      "inputs": [],
      "stateMutability": "nonpayable",
      "type": "constructor"
    },
    {
      "anonymous": false,
      "inputs": [
        {
          "indexed": true,
          "internalType": "address",
          "name": "owner",
          "type": "address"
        },
        {
          "indexed": true,
          "internalType": "address",
          "name": "approved",
          "type": "address"
        },
        {
          "indexed": true,
          "internalType": "uint256",
          "name": "tokenId",
          "type": "uint256"
        }
      ],
      "name": "Approval",
      "type": "event"
    },
    {
      "anonymous": false,
      "inputs": [
        {
          "indexed": true,
          "internalType": "address",
          "name": "owner",
          "type": "address"
        },
        {
          "indexed": true,
          "internalType": "address",
          "name": "operator",
          "type": "address"
        },
        {
          "indexed": false,
          "internalType": "bool",
          "name": "approved",
          "type": "bool"
        }
      ],
      "name": "ApprovalForAll",
      "type": "event"
    },
    {
      "anonymous": false,
      "inputs": [
        {
          "indexed": true,
          "internalType": "address",
          "name": "delegator",
          "type": "address"
        },
        {
          "indexed": true,
          "internalType": "address",
          "name": "fromDelegate",
          "type": "address"
        },
        {
          "indexed": true,
          "internalType": "address",
          "name": "toDelegate",
          "type": "address"
        }
      ],
      "name": "DelegateChanged",
      "type": "event"
    },
    {
      "anonymous": false,
      "inputs": [
        {
          "indexed": true,
          "internalType": "address",
          "name": "delegate",
          "type": "address"
        },
        {
          "indexed": false,
          "internalType": "uint256",
          "name": "previousBalance",
          "type": "uint256"
        },
        {
          "indexed": false,
          "internalType": "uint256",
          "name": "newBalance",
          "type": "uint256"
        }
      ],
      "name": "DelegateVotesChanged",
      "type": "event"
    },
    {
      "anonymous": false,
      "inputs": [
        {
          "indexed": true,
          "internalType": "address",
          "name": "previousOwner",
          "type": "address"
        },
        {
          "indexed": true,
          "internalType": "address",
          "name": "newOwner",
          "type": "address"
        }
      ],
      "name": "OwnershipTransferred",
      "type": "event"
    },
    {
      "anonymous": false,
      "inputs": [
        {
          "indexed": false,
          "internalType": "address",
          "name": "account",
          "type": "address"
        }
      ],
      "name": "Paused",
      "type": "event"
    },
    {
      "anonymous": false,
      "inputs": [
        {
          "indexed": true,
          "internalType": "address",
          "name": "from",
          "type": "address"
        },
        {
          "indexed": true,
          "internalType": "address",
          "name": "to",
          "type": "address"
        },
        {
          "indexed": true,
          "internalType": "uint256",
          "name": "tokenId",
          "type": "uint256"
        }
      ],
      "name": "Transfer",
      "type": "event"
    },
    {
      "anonymous": false,
      "inputs": [
        {
          "indexed": false,
          "internalType": "address",
          "name": "account",
          "type": "address"
        }
      ],
      "name": "Unpaused",
      "type": "event"
    },
    {
      "inputs": [],
      "name": "DOMAIN_SEPARATOR",
      "outputs": [
        {
          "internalType": "bytes32",
          "name": "",
          "type": "bytes32"
        }
      ],
      "stateMutability": "view",
      "type": "function"
    },
    {
      "inputs": [
        {
          "internalType": "address",
          "name": "to",
          "type": "address"
        },
        {
          "internalType": "uint256",
          "name": "tokenId",
          "type": "uint256"
        }
      ],
      "name": "approve",
      "outputs": [],
      "stateMutability": "nonpayable",
      "type": "function"
    },
    {
      "inputs": [
        {
          "internalType": "address",
          "name": "owner",
          "type": "address"
        }
      ],
      "name": "balanceOf",
      "outputs": [
        {
          "internalType": "uint256",
          "name": "",
          "type": "uint256"
        }
      ],
      "stateMutability": "view",
      "type": "function"
    },
    {
      "inputs": [
        {
          "internalType": "address",
          "name": "delegatee",
          "type": "address"
        }
      ],
      "name": "delegate",
      "outputs": [],
      "stateMutability": "nonpayable",
      "type": "function"
    },
    {
      "inputs": [
        {
          "internalType": "address",
          "name": "delegatee",
          "type": "address"
        },
        {
          "internalType": "uint256",
          "name": "nonce",
          "type": "uint256"
        },
        {
          "internalType": "uint256",
          "name": "expiry",
          "type": "uint256"
        },
        {
          "internalType": "uint8",
          "name": "v",
          "type": "uint8"
        },
        {
          "internalType": "bytes32",
          "name": "r",
          "type": "bytes32"
        },
        {
          "internalType": "bytes32",
          "name": "s",
          "type": "bytes32"
        }
      ],
      "name": "delegateBySig",
      "outputs": [],
      "stateMutability": "nonpayable",
      "type": "function"
    },
    {
      "inputs": [
        {
          "internalType": "address",
          "name": "account",
          "type": "address"
        }
      ],
      "name": "delegates",
      "outputs": [
        {
          "internalType": "address",
          "name": "",
          "type": "address"
        }
      ],
      "stateMutability": "view",
      "type": "function"
    },
    {
      "inputs": [
        {
          "internalType": "uint256",
          "name": "tokenId",
          "type": "uint256"
        }
      ],
      "name": "getApproved",
      "outputs": [
        {
          "internalType": "address",
          "name": "",
          "type": "address"
        }
      ],
      "stateMutability": "view",
      "type": "function"
    },
    {
      "inputs": [
        {
          "internalType": "uint256",
          "name": "blockNumber",
          "type": "uint256"
        }
      ],
      "name": "getPastTotalSupply",
      "outputs": [
        {
          "internalType": "uint256",
          "name": "",
          "type": "uint256"
        }
      ],
      "stateMutability": "view",
      "type": "function"
    },
    {
      "inputs": [
        {
          "internalType": "address",
          "name": "account",
          "type": "address"
        },
        {
          "internalType": "uint256",
          "name": "blockNumber",
          "type": "uint256"
        }
      ],
      "name": "getPastVotes",
      "outputs": [
        {
          "internalType": "uint256",
          "name": "",
          "type": "uint256"
        }
      ],
      "stateMutability": "view",
      "type": "function"
    },
    {
      "inputs": [
        {
          "internalType": "address",
          "name": "account",
          "type": "address"
        }
      ],
      "name": "getVotes",
      "outputs": [
        {
          "internalType": "uint256",
          "name": "",
          "type": "uint256"
        }
      ],
      "stateMutability": "view",
      "type": "function"
    },
    {
      "inputs": [
        {
          "internalType": "address",
          "name": "owner",
          "type": "address"
        },
        {
          "internalType": "address",
          "name": "operator",
          "type": "address"
        }
      ],
      "name": "isApprovedForAll",
      "outputs": [
        {
          "internalType": "bool",
          "name": "",
          "type": "bool"
        }
      ],
      "stateMutability": "view",
      "type": "function"
    },
    {
      "inputs": [],
      "name": "name",
      "outputs": [
        {
          "internalType": "string",
          "name": "",
          "type": "string"
        }
      ],
      "stateMutability": "view",
      "type": "function"
    },
    {
      "inputs": [
        {
          "internalType": "address",
          "name": "owner",
          "type": "address"
        }
      ],
      "name": "nonces",
      "outputs": [
        {
          "internalType": "uint256",
          "name": "",
          "type": "uint256"
        }
      ],
      "stateMutability": "view",
      "type": "function"
    },
    {
      "inputs": [],
      "name": "owner",
      "outputs": [
        {
          "internalType": "address",
          "name": "",
          "type": "address"
        }
      ],
      "stateMutability": "view",
      "type": "function"
    },
    {
      "inputs": [
        {
          "internalType": "uint256",
          "name": "tokenId",
          "type": "uint256"
        }
      ],
      "name": "ownerOf",
      "outputs": [
        {
          "internalType": "address",
          "name": "",
          "type": "address"
        }
      ],
      "stateMutability": "view",
      "type": "function"
    },
    {
      "inputs": [],
      "name": "pause",
      "outputs": [],
      "stateMutability": "nonpayable",
      "type": "function"
    },
    {
      "inputs": [],
      "name": "paused",
      "outputs": [
        {
          "internalType": "bool",
          "name": "",
          "type": "bool"
        }
      ],
      "stateMutability": "view",
      "type": "function"
    },
    {
      "inputs": [],
      "name": "renounceOwnership",
      "outputs": [],
      "stateMutability": "nonpayable",
      "type": "function"
    },
    {
      "inputs": [
        {
          "internalType": "address",
          "name": "to",
          "type": "address"
        },
        {
          "internalType": "string",
          "name": "uri",
          "type": "string"
        }
      ],
      "name": "safeMint",
      "outputs": [],
      "stateMutability": "nonpayable",
      "type": "function"
    },
    {
      "inputs": [
        {
          "internalType": "address",
          "name": "from",
          "type": "address"
        },
        {
          "internalType": "address",
          "name": "to",
          "type": "address"
        },
        {
          "internalType": "uint256",
          "name": "tokenId",
          "type": "uint256"
        }
      ],
      "name": "safeTransferFrom",
      "outputs": [],
      "stateMutability": "nonpayable",
      "type": "function"
    },
    {
      "inputs": [
        {
          "internalType": "address",
          "name": "from",
          "type": "address"
        },
        {
          "internalType": "address",
          "name": "to",
          "type": "address"
        },
        {
          "internalType": "uint256",
          "name": "tokenId",
          "type": "uint256"
        },
        {
          "internalType": "bytes",
          "name": "_data",
          "type": "bytes"
        }
      ],
      "name": "safeTransferFrom",
      "outputs": [],
      "stateMutability": "nonpayable",
      "type": "function"
    },
    {
      "inputs": [
        {
          "internalType": "address",
          "name": "operator",
          "type": "address"
        },
        {
          "internalType": "bool",
          "name": "approved",
          "type": "bool"
        }
      ],
      "name": "setApprovalForAll",
      "outputs": [],
      "stateMutability": "nonpayable",
      "type": "function"
    },
    {
      "inputs": [
        {
          "internalType": "bytes4",
          "name": "interfaceId",
          "type": "bytes4"
        }
      ],
      "name": "supportsInterface",
      "outputs": [
        {
          "internalType": "bool",
          "name": "",
          "type": "bool"
        }
      ],
      "stateMutability": "view",
      "type": "function"
    },
    {
      "inputs": [],
      "name": "symbol",
      "outputs": [
        {
          "internalType": "string",
          "name": "",
          "type": "string"
        }
      ],
      "stateMutability": "view",
      "type": "function"
    },
    {
      "inputs": [
        {
          "internalType": "uint256",
          "name": "tokenId",
          "type": "uint256"
        }
      ],
      "name": "tokenURI",
      "outputs": [
        {
          "internalType": "string",
          "name": "",
          "type": "string"
        }
      ],
      "stateMutability": "view",
      "type": "function"
    },
    {
      "inputs": [
        {
          "internalType": "address",
          "name": "from",
          "type": "address"
        },
        {
          "internalType": "address",
          "name": "to",
          "type": "address"
        },
        {
          "internalType": "uint256",
          "name": "tokenId",
          "type": "uint256"
        }
      ],
      "name": "transferFrom",
      "outputs": [],
      "stateMutability": "nonpayable",
      "type": "function"
    },
    {
      "inputs": [
        {
          "internalType": "address",
          "name": "newOwner",
          "type": "address"
        }
      ],
      "name": "transferOwnership",
      "outputs": [],
      "stateMutability": "nonpayable",
      "type": "function"
    },
    {
      "inputs": [],
      "name": "unpause",
      "outputs": [],
      "stateMutability": "nonpayable",
      "type": "function"
    }
  ],
  "transactionHash": "0x22e740009a13cce10a9bc9a6a1704378099fb98bfadec64232af33fa67589b7e",
  "args": [],
  "numDeployments": 1,
  "solcInputHash": "daedb57e0e2aa6a3e0b526bd6487b7fc",
  "bytecode": "0x6101406040523480156200001257600080fd5b506040518060400160405280600c81526020016b536c6344616f45726337323160a01b815250604051806040016040528060018152602001603160f81b8152506040518060400160405280600c81526020016b536c6344616f45726337323160a01b8152506040518060400160405280600381526020016214d31160ea1b8152508160009080519060200190620000ab929190620001ce565b508051620000c1906001906020840190620001ce565b50506007805460ff1916905550620000d93362000174565b815160208084019190912082518383012060e08290526101008190524660a0818152604080517f8b73c3c69bb8fe3d512ecc4cf759cc79239f7b179b0ffacaa9a75d522b39400f81880181905281830187905260608201869052608082019490945230818401528151808203909301835260c00190528051940193909320919290916080523060601b60c0526101205250620002b192505050565b600780546001600160a01b03838116610100818102610100600160a81b031985161790945560405193909204169182907f8be0079c531659141344cd1fd0a4f28419497f9722a3daafe3b4186f6b6457e090600090a35050565b828054620001dc9062000274565b90600052602060002090601f0160209004810192826200020057600085556200024b565b82601f106200021b57805160ff19168380011785556200024b565b828001600101855582156200024b579182015b828111156200024b5782518255916020019190600101906200022e565b50620002599291506200025d565b5090565b5b808211156200025957600081556001016200025e565b600181811c908216806200028957607f821691505b60208210811415620002ab57634e487b7160e01b600052602260045260246000fd5b50919050565b60805160a05160c05160601c60e05161010051610120516129da620003046000396000610fb70152600061100601526000610fe101526000610f3a01526000610f6401526000610f8e01526129da6000f3fe608060405234801561001057600080fd5b50600436106101c45760003560e01c8063715018a6116100f9578063a22cb46511610097578063c87b56dd11610071578063c87b56dd146103ad578063d204c45e146103c0578063e985e9c5146103d3578063f2fde38b1461040f57600080fd5b8063a22cb46514610374578063b88d4fde14610387578063c3cda5201461039a57600080fd5b80638da5cb5b116100d35780638da5cb5b146103305780638e539e8c1461034657806395d89b41146103595780639ab24eb01461036157600080fd5b8063715018a61461030d5780637ecebe00146103155780638456cb591461032857600080fd5b80633f4ba83a116101665780635c19a95c116101405780635c19a95c146102c95780635c975abb146102dc5780636352211e146102e757806370a08231146102fa57600080fd5b80633f4ba83a1461028257806342842e0e1461028a578063587cde1e1461029d57600080fd5b8063095ea7b3116101a2578063095ea7b31461023157806323b872dd146102465780633644e515146102595780633a46b1a81461026f57600080fd5b806301ffc9a7146101c957806306fdde03146101f1578063081812fc14610206575b600080fd5b6101dc6101d73660046126a6565b610422565b60405190151581526020015b60405180910390f35b6101f9610474565b6040516101e8919061278e565b6102196102143660046126de565b610506565b6040516001600160a01b0390911681526020016101e8565b61024461023f36600461261f565b610593565b005b6102446102543660046124d2565b6106a9565b6102616106da565b6040519081526020016101e8565b61026161027d36600461261f565b6106e9565b610244610712565b6102446102983660046124d2565b61074c565b6102196102ab366004612486565b6001600160a01b039081166000908152600860205260409020541690565b6102446102d7366004612486565b610767565b60075460ff166101dc565b6102196102f53660046126de565b610776565b610261610308366004612486565b6107ed565b610244610874565b610261610323366004612486565b6108ae565b6102446108cc565b60075461010090046001600160a01b0316610219565b6102616103543660046126de565b610904565b6101f9610960565b61026161036f366004612486565b61096f565b610244610382366004612586565b610990565b61024461039536600461250d565b61099b565b6102446103a8366004612648565b6109d3565b6101f96103bb3660046126de565b610b00565b6102446103ce3660046125c0565b610b0b565b6101dc6103e13660046124a0565b6001600160a01b03918216600090815260056020908152604080832093909416825291909152205460ff1690565b61024461041d366004612486565b610b6a565b60006001600160e01b031982166380ac58cd60e01b148061045357506001600160e01b03198216635b5e139f60e01b145b8061046e57506301ffc9a760e01b6001600160e01b03198316145b92915050565b606060008054610483906128e8565b80601f01602080910402602001604051908101604052809291908181526020018280546104af906128e8565b80156104fc5780601f106104d1576101008083540402835291602001916104fc565b820191906000526020600020905b8154815290600101906020018083116104df57829003601f168201915b5050505050905090565b600061051182610c0b565b6105775760405162461bcd60e51b815260206004820152602c60248201527f4552433732313a20617070726f76656420717565727920666f72206e6f6e657860448201526b34b9ba32b73a103a37b5b2b760a11b60648201526084015b60405180910390fd5b506000908152600460205260409020546001600160a01b031690565b600061059e82610776565b9050806001600160a01b0316836001600160a01b0316141561060c5760405162461bcd60e51b815260206004820152602160248201527f4552433732313a20617070726f76616c20746f2063757272656e74206f776e656044820152603960f91b606482015260840161056e565b336001600160a01b0382161480610628575061062881336103e1565b61069a5760405162461bcd60e51b815260206004820152603860248201527f4552433732313a20617070726f76652063616c6c6572206973206e6f74206f7760448201527f6e6572206e6f7220617070726f76656420666f7220616c6c0000000000000000606482015260840161056e565b6106a48383610c28565b505050565b6106b33382610c96565b6106cf5760405162461bcd60e51b815260040161056e90612828565b6106a4838383610d80565b60006106e4610f2d565b905090565b6001600160a01b038216600090815260096020526040812061070b9083611054565b9392505050565b6007546001600160a01b036101009091041633146107425760405162461bcd60e51b815260040161056e906127f3565b61074a61117f565b565b6106a48383836040518060200160405280600081525061099b565b336107728183611212565b5050565b6000818152600260205260408120546001600160a01b03168061046e5760405162461bcd60e51b815260206004820152602960248201527f4552433732313a206f776e657220717565727920666f72206e6f6e657869737460448201526832b73a103a37b5b2b760b91b606482015260840161056e565b60006001600160a01b0382166108585760405162461bcd60e51b815260206004820152602a60248201527f4552433732313a2062616c616e636520717565727920666f7220746865207a65604482015269726f206164647265737360b01b606482015260840161056e565b506001600160a01b031660009081526003602052604090205490565b6007546001600160a01b036101009091041633146108a45760405162461bcd60e51b815260040161056e906127f3565b61074a6000611284565b6001600160a01b0381166000908152600b602052604081205461046e565b6007546001600160a01b036101009091041633146108fc5760405162461bcd60e51b815260040161056e906127f3565b61074a6112de565b60004382106109555760405162461bcd60e51b815260206004820152601a60248201527f566f7465733a20626c6f636b206e6f7420796574206d696e6564000000000000604482015260640161056e565b61046e600a83611054565b606060018054610483906128e8565b6001600160a01b038116600090815260096020526040812061046e90611359565b6107723383836113c3565b6109a53383610c96565b6109c15760405162461bcd60e51b815260040161056e90612828565b6109cd84848484611492565b50505050565b83421115610a235760405162461bcd60e51b815260206004820152601860248201527f566f7465733a207369676e617475726520657870697265640000000000000000604482015260640161056e565b604080517fe48329057bfd03d55e49b547132e39cffd9c1820ad7b9d4c5307691425d15adf60208201526001600160a01b038816918101919091526060810186905260808101859052600090610a9d90610a959060a001604051602081830303815290604052805190602001206114c5565b858585611513565b9050610aa88161153b565b8614610aed5760405162461bcd60e51b8152602060048201526014602482015273566f7465733a20696e76616c6964206e6f6e636560601b604482015260640161056e565b610af78188611212565b50505050505050565b606061046e82611563565b6007546001600160a01b03610100909104163314610b3b5760405162461bcd60e51b815260040161056e906127f3565b6000610b46600c5490565b9050610b56600c80546001019055565b610b6083826116d2565b6106a481836116ec565b6007546001600160a01b03610100909104163314610b9a5760405162461bcd60e51b815260040161056e906127f3565b6001600160a01b038116610bff5760405162461bcd60e51b815260206004820152602660248201527f4f776e61626c653a206e6577206f776e657220697320746865207a65726f206160448201526564647265737360d01b606482015260840161056e565b610c0881611284565b50565b6000908152600260205260409020546001600160a01b0316151590565b600081815260046020526040902080546001600160a01b0319166001600160a01b0384169081179091558190610c5d82610776565b6001600160a01b03167f8c5be1e5ebec7d5bd14f71427d1e84f3dd0314c0f7b2291e5b200ac8c7c3b92560405160405180910390a45050565b6000610ca182610c0b565b610d025760405162461bcd60e51b815260206004820152602c60248201527f4552433732313a206f70657261746f7220717565727920666f72206e6f6e657860448201526b34b9ba32b73a103a37b5b2b760a11b606482015260840161056e565b6000610d0d83610776565b9050806001600160a01b0316846001600160a01b03161480610d5457506001600160a01b0380821660009081526005602090815260408083209388168352929052205460ff165b80610d785750836001600160a01b0316610d6d84610506565b6001600160a01b0316145b949350505050565b826001600160a01b0316610d9382610776565b6001600160a01b031614610df75760405162461bcd60e51b815260206004820152602560248201527f4552433732313a207472616e736665722066726f6d20696e636f72726563742060448201526437bbb732b960d91b606482015260840161056e565b6001600160a01b038216610e595760405162461bcd60e51b8152602060048201526024808201527f4552433732313a207472616e7366657220746f20746865207a65726f206164646044820152637265737360e01b606482015260840161056e565b610e64838383611777565b610e6f600082610c28565b6001600160a01b0383166000908152600360205260408120805460019290610e989084906128a5565b90915550506001600160a01b0382166000908152600360205260408120805460019290610ec6908490612879565b909155505060008181526002602052604080822080546001600160a01b0319166001600160a01b0386811691821790925591518493918716917fddf252ad1be2c89b69c2b068fc378daa952ba7f163c4a11628f55a4df523b3ef91a46106a48383836117bd565b6000306001600160a01b037f000000000000000000000000000000000000000000000000000000000000000016148015610f8657507f000000000000000000000000000000000000000000000000000000000000000046145b15610fb057507f000000000000000000000000000000000000000000000000000000000000000090565b50604080517f00000000000000000000000000000000000000000000000000000000000000006020808301919091527f0000000000000000000000000000000000000000000000000000000000000000828401527f000000000000000000000000000000000000000000000000000000000000000060608301524660808301523060a0808401919091528351808403909101815260c0909201909252805191012090565b60004382106110a55760405162461bcd60e51b815260206004820181905260248201527f436865636b706f696e74733a20626c6f636b206e6f7420796574206d696e6564604482015260640161056e565b825460005b818110156111185760006110be82846117c8565b9050848660000182815481106110e457634e487b7160e01b600052603260045260246000fd5b60009182526020909120015463ffffffff16111561110457809250611112565b61110f816001612879565b91505b506110aa565b811561116a578461112a6001846128a5565b8154811061114857634e487b7160e01b600052603260045260246000fd5b60009182526020909120015464010000000090046001600160e01b031661116d565b60005b6001600160e01b031695945050505050565b60075460ff166111c85760405162461bcd60e51b815260206004820152601460248201527314185d5cd8589b194e881b9bdd081c185d5cd95960621b604482015260640161056e565b6007805460ff191690557f5db9ee0a495bf2e6ff9c91a7834c1ba4fdd244a5e8aa4e537bd38aeae4b073aa335b6040516001600160a01b03909116815260200160405180910390a1565b6001600160a01b0382811660008181526008602052604080822080548686166001600160a01b0319821681179092559151919094169392849290917f3134e8a2e6d97e929a7e54011ea5485d7d196dd5f0ba4d4ef95803e8e3fc257f9190a46106a4818361127f866117e3565b6117ee565b600780546001600160a01b03838116610100818102610100600160a81b031985161790945560405193909204169182907f8be0079c531659141344cd1fd0a4f28419497f9722a3daafe3b4186f6b6457e090600090a35050565b60075460ff16156113245760405162461bcd60e51b815260206004820152601060248201526f14185d5cd8589b194e881c185d5cd95960821b604482015260640161056e565b6007805460ff191660011790557f62e78cea01bee320cd4e420270b5ea74000d11b0c9f74754ebdbfc544b05a2586111f53390565b805460009080156113b057826113706001836128a5565b8154811061138e57634e487b7160e01b600052603260045260246000fd5b60009182526020909120015464010000000090046001600160e01b03166113b3565b60005b6001600160e01b03169392505050565b816001600160a01b0316836001600160a01b031614156114255760405162461bcd60e51b815260206004820152601960248201527f4552433732313a20617070726f766520746f2063616c6c657200000000000000604482015260640161056e565b6001600160a01b03838116600081815260056020908152604080832094871680845294825291829020805460ff191686151590811790915591519182527f17307eab39ab6107e8899845ad3d59bd9653f200f220920489ca2b5937696c31910160405180910390a3505050565b61149d848484610d80565b6114a98484848461192b565b6109cd5760405162461bcd60e51b815260040161056e906127a1565b600061046e6114d2610f2d565b8360405161190160f01b6020820152602281018390526042810182905260009060620160405160208183030381529060405280519060200120905092915050565b600080600061152487878787611a35565b9150915061153181611b22565b5095945050505050565b6001600160a01b0381166000908152600b602052604090208054600181018255905b50919050565b606061156e82610c0b565b6115d45760405162461bcd60e51b815260206004820152603160248201527f45524337323155524953746f726167653a2055524920717565727920666f72206044820152703737b732bc34b9ba32b73a103a37b5b2b760791b606482015260840161056e565b600082815260066020526040812080546115ed906128e8565b80601f0160208091040260200160405190810160405280929190818152602001828054611619906128e8565b80156116665780601f1061163b57610100808354040283529160200191611666565b820191906000526020600020905b81548152906001019060200180831161164957829003601f168201915b50505050509050600061168460408051602081019091526000815290565b9050805160001415611697575092915050565b8151156116c95780826040516020016116b1929190612722565b60405160208183030381529060405292505050919050565b610d7884611d23565b610772828260405180602001604052806000815250611dfa565b6116f582610c0b565b6117585760405162461bcd60e51b815260206004820152602e60248201527f45524337323155524953746f726167653a2055524920736574206f66206e6f6e60448201526d32bc34b9ba32b73a103a37b5b2b760911b606482015260840161056e565b600082815260066020908152604090912082516106a492840190612364565b60075460ff16156106a45760405162461bcd60e51b815260206004820152601060248201526f14185d5cd8589b194e881c185d5cd95960821b604482015260640161056e565b6106a4838383611e2d565b60006117d76002848418612891565b61070b90848416612879565b600061046e826107ed565b816001600160a01b0316836001600160a01b0316141580156118105750600081115b156106a4576001600160a01b0383161561189e576001600160a01b0383166000908152600960205260408120819061184b90611e3985611e45565b91509150846001600160a01b03167fdec2bacdd2f05b59de34da9b523dff8be42e5e38e818c82fdb0bae774387a7248383604051611893929190918252602082015260400190565b60405180910390a250505b6001600160a01b038216156106a4576001600160a01b038216600090815260096020526040812081906118d490611e7385611e45565b91509150836001600160a01b03167fdec2bacdd2f05b59de34da9b523dff8be42e5e38e818c82fdb0bae774387a724838360405161191c929190918252602082015260400190565b60405180910390a25050505050565b60006001600160a01b0384163b15611a2d57604051630a85bd0160e11b81526001600160a01b0385169063150b7a029061196f903390899088908890600401612751565b602060405180830381600087803b15801561198957600080fd5b505af19250505080156119b9575060408051601f3d908101601f191682019092526119b6918101906126c2565b60015b611a13573d8080156119e7576040519150601f19603f3d011682016040523d82523d6000602084013e6119ec565b606091505b508051611a0b5760405162461bcd60e51b815260040161056e906127a1565b805181602001fd5b6001600160e01b031916630a85bd0160e11b149050610d78565b506001610d78565b6000807f7fffffffffffffffffffffffffffffff5d576e7357a4501ddfe92f46681b20a0831115611a6c5750600090506003611b19565b8460ff16601b14158015611a8457508460ff16601c14155b15611a955750600090506004611b19565b6040805160008082526020820180845289905260ff881692820192909252606081018690526080810185905260019060a0016020604051602081039080840390855afa158015611ae9573d6000803e3d6000fd5b5050604051601f1901519150506001600160a01b038116611b1257600060019250925050611b19565b9150600090505b94509492505050565b6000816004811115611b4457634e487b7160e01b600052602160045260246000fd5b1415611b4d5750565b6001816004811115611b6f57634e487b7160e01b600052602160045260246000fd5b1415611bbd5760405162461bcd60e51b815260206004820152601860248201527f45434453413a20696e76616c6964207369676e61747572650000000000000000604482015260640161056e565b6002816004811115611bdf57634e487b7160e01b600052602160045260246000fd5b1415611c2d5760405162461bcd60e51b815260206004820152601f60248201527f45434453413a20696e76616c6964207369676e6174757265206c656e67746800604482015260640161056e565b6003816004811115611c4f57634e487b7160e01b600052602160045260246000fd5b1415611ca85760405162461bcd60e51b815260206004820152602260248201527f45434453413a20696e76616c6964207369676e6174757265202773272076616c604482015261756560f01b606482015260840161056e565b6004816004811115611cca57634e487b7160e01b600052602160045260246000fd5b1415610c085760405162461bcd60e51b815260206004820152602260248201527f45434453413a20696e76616c6964207369676e6174757265202776272076616c604482015261756560f01b606482015260840161056e565b6060611d2e82610c0b565b611d925760405162461bcd60e51b815260206004820152602f60248201527f4552433732314d657461646174613a2055524920717565727920666f72206e6f60448201526e3732bc34b9ba32b73a103a37b5b2b760891b606482015260840161056e565b6000611da960408051602081019091526000815290565b90506000815111611dc9576040518060200160405280600081525061070b565b80611dd384611e7f565b604051602001611de4929190612722565b6040516020818303038152906040529392505050565b611e048383611f99565b611e11600084848461192b565b6106a45760405162461bcd60e51b815260040161056e906127a1565b6106a4838360016120e0565b600061070b82846128a5565b600080611e6785611e62611e5888611359565b868863ffffffff16565b612150565b91509150935093915050565b600061070b8284612879565b606081611ea35750506040805180820190915260018152600360fc1b602082015290565b8160005b8115611ecd5780611eb78161291d565b9150611ec69050600a83612891565b9150611ea7565b60008167ffffffffffffffff811115611ef657634e487b7160e01b600052604160045260246000fd5b6040519080825280601f01601f191660200182016040528015611f20576020820181803683370190505b5090505b8415610d7857611f356001836128a5565b9150611f42600a86612938565b611f4d906030612879565b60f81b818381518110611f7057634e487b7160e01b600052603260045260246000fd5b60200101906001600160f81b031916908160001a905350611f92600a86612891565b9450611f24565b6001600160a01b038216611fef5760405162461bcd60e51b815260206004820181905260248201527f4552433732313a206d696e7420746f20746865207a65726f2061646472657373604482015260640161056e565b611ff881610c0b565b156120455760405162461bcd60e51b815260206004820152601c60248201527f4552433732313a20746f6b656e20616c7265616479206d696e74656400000000604482015260640161056e565b61205160008383611777565b6001600160a01b038216600090815260036020526040812080546001929061207a908490612879565b909155505060008181526002602052604080822080546001600160a01b0319166001600160a01b03861690811790915590518392907fddf252ad1be2c89b69c2b068fc378daa952ba7f163c4a11628f55a4df523b3ef908290a4610772600083836117bd565b6001600160a01b0383166120ff576120fc600a611e7383611e45565b50505b6001600160a01b03821661211e5761211b600a611e3983611e45565b50505b6001600160a01b038381166000908152600860205260408082205485841683529120546106a4929182169116836117ee565b815460009081908161216186611359565b90506000821180156121ad5750438661217b6001856128a5565b8154811061219957634e487b7160e01b600052603260045260246000fd5b60009182526020909120015463ffffffff16145b1561221b576121bb85612292565b866121c76001856128a5565b815481106121e557634e487b7160e01b600052603260045260246000fd5b9060005260206000200160000160046101000a8154816001600160e01b0302191690836001600160e01b03160217905550612289565b856000016040518060400160405280612233436122ff565b63ffffffff16815260200161224788612292565b6001600160e01b0390811690915282546001810184556000938452602093849020835194909301519091166401000000000263ffffffff909316929092179101555b95939450505050565b60006001600160e01b038211156122fb5760405162461bcd60e51b815260206004820152602760248201527f53616665436173743a2076616c756520646f65736e27742066697420696e20326044820152663234206269747360c81b606482015260840161056e565b5090565b600063ffffffff8211156122fb5760405162461bcd60e51b815260206004820152602660248201527f53616665436173743a2076616c756520646f65736e27742066697420696e203360448201526532206269747360d01b606482015260840161056e565b828054612370906128e8565b90600052602060002090601f01602090048101928261239257600085556123d8565b82601f106123ab57805160ff19168380011785556123d8565b828001600101855582156123d8579182015b828111156123d85782518255916020019190600101906123bd565b506122fb9291505b808211156122fb57600081556001016123e0565b600067ffffffffffffffff8084111561240f5761240f612978565b604051601f8501601f19908116603f0116810190828211818310171561243757612437612978565b8160405280935085815286868601111561245057600080fd5b858560208301376000602087830101525050509392505050565b80356001600160a01b038116811461248157600080fd5b919050565b600060208284031215612497578081fd5b61070b8261246a565b600080604083850312156124b2578081fd5b6124bb8361246a565b91506124c96020840161246a565b90509250929050565b6000806000606084860312156124e6578081fd5b6124ef8461246a565b92506124fd6020850161246a565b9150604084013590509250925092565b60008060008060808587031215612522578081fd5b61252b8561246a565b93506125396020860161246a565b925060408501359150606085013567ffffffffffffffff81111561255b578182fd5b8501601f8101871361256b578182fd5b61257a878235602084016123f4565b91505092959194509250565b60008060408385031215612598578182fd5b6125a18361246a565b9150602083013580151581146125b5578182fd5b809150509250929050565b600080604083850312156125d2578182fd5b6125db8361246a565b9150602083013567ffffffffffffffff8111156125f6578182fd5b8301601f81018513612606578182fd5b612615858235602084016123f4565b9150509250929050565b60008060408385031215612631578182fd5b61263a8361246a565b946020939093013593505050565b60008060008060008060c08789031215612660578182fd5b6126698761246a565b95506020870135945060408701359350606087013560ff8116811461268c578283fd5b9598949750929560808101359460a0909101359350915050565b6000602082840312156126b7578081fd5b813561070b8161298e565b6000602082840312156126d3578081fd5b815161070b8161298e565b6000602082840312156126ef578081fd5b5035919050565b6000815180845261270e8160208601602086016128bc565b601f01601f19169290920160200192915050565b600083516127348184602088016128bc565b8351908301906127488183602088016128bc565b01949350505050565b6001600160a01b0385811682528416602082015260408101839052608060608201819052600090612784908301846126f6565b9695505050505050565b60208152600061070b60208301846126f6565b60208082526032908201527f4552433732313a207472616e7366657220746f206e6f6e20455243373231526560408201527131b2b4bb32b91034b6b83632b6b2b73a32b960711b606082015260800190565b6020808252818101527f4f776e61626c653a2063616c6c6572206973206e6f7420746865206f776e6572604082015260600190565b60208082526031908201527f4552433732313a207472616e736665722063616c6c6572206973206e6f74206f6040820152701ddb995c881b9bdc88185c1c1c9bdd9959607a1b606082015260800190565b6000821982111561288c5761288c61294c565b500190565b6000826128a0576128a0612962565b500490565b6000828210156128b7576128b761294c565b500390565b60005b838110156128d75781810151838201526020016128bf565b838111156109cd5750506000910152565b600181811c908216806128fc57607f821691505b6020821081141561155d57634e487b7160e01b600052602260045260246000fd5b60006000198214156129315761293161294c565b5060010190565b60008261294757612947612962565b500690565b634e487b7160e01b600052601160045260246000fd5b634e487b7160e01b600052601260045260246000fd5b634e487b7160e01b600052604160045260246000fd5b6001600160e01b031981168114610c0857600080fdfea26469706673582212202fc54e89a7133d814fc03bce4d3cc0e6a483591308f4b86a5b3cb1220d4acb2c64736f6c63430008040033",
  "devdoc": {
    "custom:security-contact": "igor@mail.io",
    "kind": "dev",
    "methods": {
      "DOMAIN_SEPARATOR()": {
        "details": "Returns the contract's {EIP712} domain separator."
      },
      "approve(address,uint256)": {
        "details": "See {IERC721-approve}."
      },
      "balanceOf(address)": {
        "details": "See {IERC721-balanceOf}."
      },
      "delegate(address)": {
        "details": "Delegates votes from the sender to `delegatee`."
      },
      "delegateBySig(address,uint256,uint256,uint8,bytes32,bytes32)": {
        "details": "Delegates votes from signer to `delegatee`."
      },
      "delegates(address)": {
        "details": "Returns the delegate that `account` has chosen."
      },
      "getApproved(uint256)": {
        "details": "See {IERC721-getApproved}."
      },
      "getPastTotalSupply(uint256)": {
        "details": "Returns the total supply of votes available at the end of a past block (`blockNumber`). NOTE: This value is the sum of all available votes, which is not necessarily the sum of all delegated votes. Votes that have not been delegated are still part of total supply, even though they would not participate in a vote. Requirements: - `blockNumber` must have been already mined"
      },
      "getPastVotes(address,uint256)": {
        "details": "Returns the amount of votes that `account` had at the end of a past block (`blockNumber`). Requirements: - `blockNumber` must have been already mined"
      },
      "getVotes(address)": {
        "details": "Returns the current amount of votes that `account` has."
      },
      "isApprovedForAll(address,address)": {
        "details": "See {IERC721-isApprovedForAll}."
      },
      "name()": {
        "details": "See {IERC721Metadata-name}."
      },
      "nonces(address)": {
        "details": "Returns an address nonce."
      },
      "owner()": {
        "details": "Returns the address of the current owner."
      },
      "ownerOf(uint256)": {
        "details": "See {IERC721-ownerOf}."
      },
      "paused()": {
        "details": "Returns true if the contract is paused, and false otherwise."
      },
      "renounceOwnership()": {
        "details": "Leaves the contract without owner. It will not be possible to call `onlyOwner` functions anymore. Can only be called by the current owner. NOTE: Renouncing ownership will leave the contract without an owner, thereby removing any functionality that is only available to the owner."
      },
      "safeTransferFrom(address,address,uint256)": {
        "details": "See {IERC721-safeTransferFrom}."
      },
      "safeTransferFrom(address,address,uint256,bytes)": {
        "details": "See {IERC721-safeTransferFrom}."
      },
      "setApprovalForAll(address,bool)": {
        "details": "See {IERC721-setApprovalForAll}."
      },
      "supportsInterface(bytes4)": {
        "details": "See {IERC165-supportsInterface}."
      },
      "symbol()": {
        "details": "See {IERC721Metadata-symbol}."
      },
      "transferFrom(address,address,uint256)": {
        "details": "See {IERC721-transferFrom}."
      },
      "transferOwnership(address)": {
        "details": "Transfers ownership of the contract to a new account (`newOwner`). Can only be called by the current owner."
      }
    },
    "version": 1
  },
  "userdoc": {
    "kind": "user",
    "methods": {},
    "version": 1
  },
  "storageLayout": {
    "storage": [
      {
        "astId": 2080,
        "contract": "contracts/SlcDaoErc721.sol:SlcDaoErc721",
        "label": "_name",
        "offset": 0,
        "slot": "0",
        "type": "t_string_storage"
      },
      {
        "astId": 2082,
        "contract": "contracts/SlcDaoErc721.sol:SlcDaoErc721",
        "label": "_symbol",
        "offset": 0,
        "slot": "1",
        "type": "t_string_storage"
      },
      {
        "astId": 2086,
        "contract": "contracts/SlcDaoErc721.sol:SlcDaoErc721",
        "label": "_owners",
        "offset": 0,
        "slot": "2",
        "type": "t_mapping(t_uint256,t_address)"
      },
      {
        "astId": 2090,
        "contract": "contracts/SlcDaoErc721.sol:SlcDaoErc721",
        "label": "_balances",
        "offset": 0,
        "slot": "3",
        "type": "t_mapping(t_address,t_uint256)"
      },
      {
        "astId": 2094,
        "contract": "contracts/SlcDaoErc721.sol:SlcDaoErc721",
        "label": "_tokenApprovals",
        "offset": 0,
        "slot": "4",
        "type": "t_mapping(t_uint256,t_address)"
      },
      {
        "astId": 2100,
        "contract": "contracts/SlcDaoErc721.sol:SlcDaoErc721",
        "label": "_operatorApprovals",
        "offset": 0,
        "slot": "5",
        "type": "t_mapping(t_address,t_mapping(t_address,t_bool))"
      },
      {
        "astId": 3067,
        "contract": "contracts/SlcDaoErc721.sol:SlcDaoErc721",
        "label": "_tokenURIs",
        "offset": 0,
        "slot": "6",
        "type": "t_mapping(t_uint256,t_string_storage)"
      },
      {
        "astId": 1939,
        "contract": "contracts/SlcDaoErc721.sol:SlcDaoErc721",
        "label": "_paused",
        "offset": 0,
        "slot": "7",
        "type": "t_bool"
      },
      {
        "astId": 400,
        "contract": "contracts/SlcDaoErc721.sol:SlcDaoErc721",
        "label": "_owner",
        "offset": 1,
        "slot": "7",
        "type": "t_address"
      },
      {
        "astId": 1498,
        "contract": "contracts/SlcDaoErc721.sol:SlcDaoErc721",
        "label": "_delegation",
        "offset": 0,
        "slot": "8",
        "type": "t_mapping(t_address,t_address)"
      },
      {
        "astId": 1503,
        "contract": "contracts/SlcDaoErc721.sol:SlcDaoErc721",
        "label": "_delegateCheckpoints",
        "offset": 0,
        "slot": "9",
        "type": "t_mapping(t_address,t_struct(History)3569_storage)"
      },
      {
        "astId": 1506,
        "contract": "contracts/SlcDaoErc721.sol:SlcDaoErc721",
        "label": "_totalCheckpoints",
        "offset": 0,
        "slot": "10",
        "type": "t_struct(History)3569_storage"
      },
      {
        "astId": 1511,
        "contract": "contracts/SlcDaoErc721.sol:SlcDaoErc721",
        "label": "_nonces",
        "offset": 0,
        "slot": "11",
        "type": "t_mapping(t_address,t_struct(Counter)3816_storage)"
      },
      {
        "astId": 5194,
        "contract": "contracts/SlcDaoErc721.sol:SlcDaoErc721",
        "label": "_tokenIdCounter",
        "offset": 0,
        "slot": "12",
        "type": "t_struct(Counter)3816_storage"
      }
    ],
    "types": {
      "t_address": {
        "encoding": "inplace",
        "label": "address",
        "numberOfBytes": "20"
      },
      "t_array(t_struct(Checkpoint)3564_storage)dyn_storage": {
        "base": "t_struct(Checkpoint)3564_storage",
        "encoding": "dynamic_array",
        "label": "struct Checkpoints.Checkpoint[]",
        "numberOfBytes": "32"
      },
      "t_bool": {
        "encoding": "inplace",
        "label": "bool",
        "numberOfBytes": "1"
      },
      "t_mapping(t_address,t_address)": {
        "encoding": "mapping",
        "key": "t_address",
        "label": "mapping(address => address)",
        "numberOfBytes": "32",
        "value": "t_address"
      },
      "t_mapping(t_address,t_bool)": {
        "encoding": "mapping",
        "key": "t_address",
        "label": "mapping(address => bool)",
        "numberOfBytes": "32",
        "value": "t_bool"
      },
      "t_mapping(t_address,t_mapping(t_address,t_bool))": {
        "encoding": "mapping",
        "key": "t_address",
        "label": "mapping(address => mapping(address => bool))",
        "numberOfBytes": "32",
        "value": "t_mapping(t_address,t_bool)"
      },
      "t_mapping(t_address,t_struct(Counter)3816_storage)": {
        "encoding": "mapping",
        "key": "t_address",
        "label": "mapping(address => struct Counters.Counter)",
        "numberOfBytes": "32",
        "value": "t_struct(Counter)3816_storage"
      },
      "t_mapping(t_address,t_struct(History)3569_storage)": {
        "encoding": "mapping",
        "key": "t_address",
        "label": "mapping(address => struct Checkpoints.History)",
        "numberOfBytes": "32",
        "value": "t_struct(History)3569_storage"
      },
      "t_mapping(t_address,t_uint256)": {
        "encoding": "mapping",
        "key": "t_address",
        "label": "mapping(address => uint256)",
        "numberOfBytes": "32",
        "value": "t_uint256"
      },
      "t_mapping(t_uint256,t_address)": {
        "encoding": "mapping",
        "key": "t_uint256",
        "label": "mapping(uint256 => address)",
        "numberOfBytes": "32",
        "value": "t_address"
      },
      "t_mapping(t_uint256,t_string_storage)": {
        "encoding": "mapping",
        "key": "t_uint256",
        "label": "mapping(uint256 => string)",
        "numberOfBytes": "32",
        "value": "t_string_storage"
      },
      "t_string_storage": {
        "encoding": "bytes",
        "label": "string",
        "numberOfBytes": "32"
      },
      "t_struct(Checkpoint)3564_storage": {
        "encoding": "inplace",
        "label": "struct Checkpoints.Checkpoint",
        "members": [
          {
            "astId": 3561,
            "contract": "contracts/SlcDaoErc721.sol:SlcDaoErc721",
            "label": "_blockNumber",
            "offset": 0,
            "slot": "0",
            "type": "t_uint32"
          },
          {
            "astId": 3563,
            "contract": "contracts/SlcDaoErc721.sol:SlcDaoErc721",
            "label": "_value",
            "offset": 4,
            "slot": "0",
            "type": "t_uint224"
          }
        ],
        "numberOfBytes": "32"
      },
      "t_struct(Counter)3816_storage": {
        "encoding": "inplace",
        "label": "struct Counters.Counter",
        "members": [
          {
            "astId": 3815,
            "contract": "contracts/SlcDaoErc721.sol:SlcDaoErc721",
            "label": "_value",
            "offset": 0,
            "slot": "0",
            "type": "t_uint256"
          }
        ],
        "numberOfBytes": "32"
      },
      "t_struct(History)3569_storage": {
        "encoding": "inplace",
        "label": "struct Checkpoints.History",
        "members": [
          {
            "astId": 3568,
            "contract": "contracts/SlcDaoErc721.sol:SlcDaoErc721",
            "label": "_checkpoints",
            "offset": 0,
            "slot": "0",
            "type": "t_array(t_struct(Checkpoint)3564_storage)dyn_storage"
          }
        ],
        "numberOfBytes": "32"
      },
      "t_uint224": {
        "encoding": "inplace",
        "label": "uint224",
        "numberOfBytes": "28"
      },
      "t_uint256": {
        "encoding": "inplace",
        "label": "uint256",
        "numberOfBytes": "32"
      },
      "t_uint32": {
        "encoding": "inplace",
        "label": "uint32",
        "numberOfBytes": "4"
      }
    }
  }
}